:100000000C94E2000C9413050C94EC040C940A017B
:100010000C940A010C940A010C940A010C940A0134
:100020000C940A010C940A010C940A010C940A0124
:100030000C940A010C940A010C940A010C940A0114
:100040000C94A2040C940A010C94E8030C94C203CF
:100050000C940A010C940A010C940A010C940A01F4
:100060000C940A010C940A010000000024002700EF
:100070002A0000000000250028002B0000000008D6
:10008000000201000003040700000000000000005F
:10009000005EBCE2613FDD83C29C7E20A3FD1F4168
:1000A0009DC3217FFCA2401E5F01E3BD3E6082DC58
:1000B000237D9FC1421CFEA0E1BF5D0380DE3C6248
:1000C000BEE0025CDF81633D7C22C09E1D43A1FF38
:1000D0004618FAA427799BC584DA3866E5BB590728
:1000E000DB856739BAE406581947A5FB7826C49A18
:1000F000653BD987045AB8E6A7F91B45C6987A2408
:10010000F8A6441A99C7257B3A6486D85B05E7B9F7
:100110008CD2306EEDB3510F4E10F2AC2F7193CDE7
:10012000114FADF3702ECC92D38D6F31B2EC0E50D7
:10013000AFF1134DCE90722C6D33D18F0C52B0EEC7
:10014000326C8ED0530DEFB1F0AE4C1291CF2D73B7
:10015000CA947628ABF517490856B4EA6937D58BA7
:100160005709EBB536688AD495CB2977F4AA481697
:10017000E9B7550B88D6346A2B7597C94A14F6A887
:10018000742AC896154BA9F7B6E80A54D7896B3577
:1001900000000000230026002900040404040404D5
:1001A0000404020202020202030303030303010226
:1001B00004081020408001020408102001020408F5
:1001C0001020DB0C11241FBECFEFD8E0DEBFCDBF67
:1001D00011E0A0E0B1E0EAE8FFE102C005900D9275
:1001E000A03FB107D9F722E0A0EFB1E001C01D9216
:1001F000A23BB207E1F710E0C2EED0E004C02197C5
:10020000FE010E94B80FC13ED107C9F70E9419072D
:100210000C94C30F0C9400009091130281E0892785
:10022000809313020895CF92DF92EF92FF920F9383
:100230001F93CF93DF936C017A018B01C0E0D0E074
:10024000CE15DF0589F0D8016D918D01D601ED91B4
:10025000FC910190F081E02DC6010995892B11F4E4
:100260007E0102C02196ECCFC701DF91CF911F9193
:100270000F91FF90EF90DF90CF900895FC01918D4A
:10028000828D981761F0828DDF01A80FB11D5D96F8
:100290008C91928D9F5F9F73928F90E008958FEF66
:1002A0009FEF0895FC01918D828D981731F0828D1A
:1002B000E80FF11D858D90E008958FEF9FEF089571
:1002C000FC01918D228D892F90E0805C9F4F821BD5
:1002D00091098F739927089584E192E00E9460014B
:1002E00021E0892B09F420E0822F0895FC01848D00
:1002F000DF01A80FB11DA35ABF4F2C91848D90E050
:1003000001968F739927848FA689B7892C93A0892A
:10031000B1898C9180648C93938D848D981306C0E1
:100320000288F389E02D80818F7D80830895EF928C
:10033000FF920F931F93CF93DF93EC0181E0888F9F
:100340009B8D8C8D981305C0E889F989808185FD86
:1003500024C0F62E0B8D10E00F5F1F4F0F73112777
:10036000E02E8C8DE8120CC00FB607FCFACFE8899E
:10037000F989808185FFF5CFCE010E947601F1CF0A
:100380008B8DFE01E80FF11DE35AFF4FF0820B8FBA
:10039000EA89FB898081806207C0EE89FF896083DA
:1003A000E889F98980818064808381E090E0DF9131
:1003B000CF911F910F91FF90EF900895CF93DF930E
:1003C000EC01888D8823C9F0EA89FB89808185FD4D
:1003D00005C0A889B9898C9186FD0FC00FB607FCAE
:1003E000F5CF808185FFF2CFA889B9898C9185FFEF
:1003F000EDCFCE010E947601E7CFDF91CF91089536
:1004000084E192E00E946001892B39F084E192E05E
:100410000E943E018093F901F3CF08950E946C0180
:1004200081110C94000208953FB7F8948091F50172
:100430009091F601A091F701B091F80126B5A89B23
:1004400005C02F3F19F00196A11DB11D3FBFBA2F66
:10045000A92F982F8827820F911DA11DB11DBC01C6
:10046000CD0142E0660F771F881F991F4A95D1F78B
:1004700008958F929F92AF92BF92CF92DF92EF92A8
:10048000FF926B017C010E9414024B015C01C114BC
:10049000D104E104F104F1F00E941402DC01CB016B
:1004A00088199909AA09BB09883E9340A105B1059D
:1004B00070F321E0C21AD108E108F10888EE880E35
:1004C00083E0981EA11CB11CC114D104E104F10405
:1004D00019F7DDCFFF90EF90DF90CF90BF90AF90F6
:1004E0009F908F9008952FB7F8946091F1017091CB
:1004F000F2018091F3019091F4012FBF08950895C6
:10050000FC0190810180F281E02DF8948181892B9A
:1005100081832281892F809528232283A7E0B0E060
:100520001197F1F7218182238183A3E2B0E0119733
:10053000F1F780817894EFECF0E03197F1F79823B0
:1005400081E009F480E00895EF92FF920F931F93EA
:10055000CF93DF937C0108E010E0C0E0D1E0C70159
:100560000E9480028111CD2BDD0F01501109B9F7D6
:100570008C2FDF91CF911F910F91FF90EF900895F5
:10058000FC0190810180F281E02D892F809560FF30
:1005900012C0F8942281822382838181892B8183F6
:1005A000A3E2B0E01197F1F78281982B92837894BF
:1005B00087ED90E011C0F8942281822382838181AB
:1005C000892B8183AFEFB0E01197F1F78281982BEF
:1005D000928378948FE090E00197F1F70895CF929D
:1005E000DF92EF92FF920F931F93CF93DF931F92AF
:1005F000CDB7DEB76C01E62E08E010E0FF24F394DF
:1006000061E08F2D8E2109F460E0C60149830E94CC
:10061000C002FF0C0150110949810115110581F734
:10062000411115C0F894D6011196ED91FC911297E5
:1006300091818C918095892381831196ED91FC9114
:10064000129792818C9180958923828378940F9060
:10065000DF91CF911F910F91FF90EF90DF90CF909E
:100660000895CF92DF92EF92FF920F931F93CF9353
:10067000DF931F92CDB7DEB78C01F62E40E065E523
:1006800079830E94EF02CF2C7981D72E760188E002
:10069000E80EF11CF60161916F0140E0C8010E9473
:1006A000EF02CE14DF04B1F70F90DF91CF911F91CD
:1006B0000F91FF90EF90DF90CF900895FC01908113
:1006C0000180F281E02DF8948181292F20958223E9
:1006D000818378948DE743E050E0815021F1DA0185
:1006E0001197F1F730813923C1F3F8948281822385
:1006F00082838181892B81837894ABE7B7E011975E
:10070000F1F7F894818128232183A3E1B1E01197C7
:10071000F1F78081982381E009F080E07894E3E6A6
:10072000F6E03197F1F70895EF92FF921F93CF9380
:10073000DF9300D0CDB7DEB77C01142FFC018081A0
:10074000918169837A830E945E0369817A8188231B
:1007500071F0F701808191810E94310340E0612FA7
:10076000F701808191810E94EF0281E001C080E069
:100770000F900F90DF91CF911F91FF90EF90089510
:100780000E94BE0F1F920F920FB60F9211242F934B
:100790003F934F935F936F937F938F939F93AF9309
:1007A000BF93EF93FF9384E192E00E947601FF9163
:1007B000EF91BF91AF919F918F917F916F915F91D9
:1007C0004F913F912F910F900FBE0F901F90189552
:1007D0001F920F920FB60F9211242F938F939F9316
:1007E000EF93FF93E0912402F09125028081E09144
:1007F0002A02F0912B0282FD12C0908180912D027D
:100800008F5F8F7320912E02821751F0E0912D029D
:10081000F0E0EC5EFD4F958F80932D0201C080814A
:10082000FF91EF919F918F912F910F900FBE0F909D
:100830001F90189590E0FC01E458FF4F3491FC01A3
:10084000E255FE4F2491FC01E656FE4FE491EE2363
:1008500009F43BC0332339F1333091F038F43130AF
:10086000A9F0323001F584B58F7D12C0373091F098
:100870003830A1F03430B9F4809180008F7D03C00E
:10088000809180008F77809380000DC084B58F7732
:1008900084BD09C08091B0008F7703C08091B00003
:1008A0008F7D8093B000F0E0EE0FFF1FEE58FF4FFA
:1008B000A591B4918FB7F894EC91611103C0209584
:1008C0002E2301C02E2B2C938FBF0895CF93DF933F
:1008D00090E0FC01E255FE4F2491FC01E656FE4FEC
:1008E0008491882361F190E0880F991FFC01E859F9
:1008F000FF4FC591D491FC01EE58FF4FA591B491E3
:10090000611109C09FB7F89488812095822388835C
:10091000EC912E230BC0623061F49FB7F8943881BC
:10092000822F809583238883EC912E2B2C939FBF5D
:1009300006C08FB7F894E8812E2B28838FBFDF91F4
:10094000CF9108951F920F920FB60F9211242F93FB
:100950003F938F939F93AF93BF938091F1019091B9
:10096000F201A091F301B091F4013091F00123E084
:10097000230F2D3720F40196A11DB11D05C026E8D7
:10098000230F0296A11DB11D2093F0018093F10168
:100990009093F201A093F301B093F4018091F501DB
:1009A0009091F601A091F701B091F8010196A11D77
:1009B000B11D8093F5019093F601A093F701B093D8
:1009C000F801BF91AF919F918F913F912F910F901F
:1009D0000FBE0F901F9018951F920F920FB60F9297
:1009E00011242F933F934F935F936F937F938F9334
:1009F0009F93AF93BF93EF93FF93E0910201F09128
:100A000003010995FF91EF91BF91AF919F918F9154
:100A10007F916F915F914F913F912F910F900FBEFA
:100A20000F901F9018951F920F920FB60F921124DE
:100A30002F933F934F935F936F937F938F939F93E6
:100A4000AF93BF93EF93FF93E0910001F091010109
:100A50000995FF91EF91BF91AF919F918F917F91F8
:100A60006F915F914F913F912F910F900FBE0F901B
:100A70001F901895E0911402F09115020190F081F9
:100A8000E02D682F84E192E00994009769F0FC0161
:100A900001900020E9F73197AF01481B590BBC01C9
:100AA00084E192E00C94130180E090E008958F922D
:100AB0009F92AF92BF920F931F93CF93DF93CDB7C7
:100AC000DEB7A1970FB6F894DEBF0FBECDBF19A257
:100AD000423008F44AE08E010F5D1F4F842E912CA6
:100AE000A12CB12CA50194010E94320DE62FB90171
:100AF000CA0101501109EA3014F4E05D01C0E95C5B
:100B0000D801EC93232B242B252B61F7C8010E94DD
:100B10004505A1960FB6F894DEBF0FBECDBFDF919D
:100B2000CF911F910F91BF90AF909F908F9008959C
:100B30004F925F926F927F928F929F92AF92BF92ED
:100B4000CF92DF92EF92FF926B017C01B42E9B015A
:100B5000AC010E948B0F882319F084EE91E027C02E
:100B600026013701E89477F82FEF3FEF4FE75FE773
:100B7000C301B2010E948B0F81110DC02FEF3FEF17
:100B80004FE75FE7C301B2010E94C10D18161CF4C4
:100B900088EE91E00CC02FEF3FEF4FE75FE4C70115
:100BA000B6010E94190F181684F48CEE91E0FF90A4
:100BB000EF90DF90CF90BF90AF909F908F907F90FD
:100BC0006F905F904F900C9445052FEF3FEF4FE7EC
:100BD0005FECC701B6010E94C10D87FDE6CF20E0A2
:100BE00030E0A901C701B6010E94C10D87FF09C00D
:100BF0008DE20E943A054C01F7FAF094F7F8F09470
:100C000002C0812C912CA12C60E070E080E09FE379
:100C1000AB1441F020E030E040E251E40E94C60D08
:100C2000A394F6CF9B01AC01C701B6010E94550DFC
:100C30002B013C010E94380E6B017C010E94670E63
:100C40009B01AC01C301B2010E94540D2B013C0178
:100C50004AE0C701B6010E9457057C01E80CF91C67
:100C6000BB2029F08EE20E943A05E80EF91EDB2C2B
:100C7000DD2021F120E030E040E251E4C301B20187
:100C80000E941E0F2B013C010E94380E4B01A12C2B
:100C9000B12C4AE0C501B4010E945705E80EF91EC7
:100CA000C501B4010E94670E9B01AC01C301B201F2
:100CB0000E94540D2B013C01DA94DACFC701FF905A
:100CC000EF90DF90CF90BF90AF909F908F907F90EC
:100CD0006F905F904F9008950C944505CF92DF92EE
:100CE000EF92FF92CF93DF936C01990FEE08FF080C
:100CF000F7FE12C08DE20E943A05EC0166277727C5
:100D0000CB016C197D098E099F094AE00E945705A5
:100D10007C01EC0EFD1E06C04AE0C701B6010E9430
:100D200057057C0187E491E00E9445058E0D9F1DCB
:100D3000DF91CF91FF90EF90DF90CF9008956623E1
:100D400011F061E001C060E00C941A04CF92DF92D0
:100D5000EF92FF92CF93DF936C01990FEE08FF089B
:100D6000F7FE17C08DE20E943A05EC01662777274F
:100D7000CB016C197D098E099F094AE00E94570535
:100D80008C0F9D1FDF91CF91FF90EF90DF90CF9060
:100D900008954AE0C701B601DF91CF91FF90EF902F
:100DA000DF90CF900C945705CF92DF92EF92FF9295
:100DB0000F931F93E82FF92F05C001501109210946
:100DC000310961F1908196239417B9F305C0015060
:100DD00011092109310911F1908196239413F7CF5C
:100DE000C12CD12CE12CF12C0AC08FEFC81AD80AE3
:100DF000E80AF80A0C151D052E053F0579F08081DB
:100E00008623841791F36C2D7D2D8E2D9F2D1F91A0
:100E10000F91FF90EF90DF90CF90089560E070E029
:100E200080E090E01F910F91FF90EF90DF90CF90C6
:100E30000895CF93DF93CDB7DEB7C455D1090FB670
:100E4000F894DEBF0FBECDBF789484B5826084BDB8
:100E500084B5816084BD85B5826085BD85B58160BE
:100E600085BD80916E00816080936E00109281003C
:100E700080918100826080938100809181008160F7
:100E800080938100809180008160809380008091B8
:100E9000B10084608093B1008091B0008160809344
:100EA000B00080917A00846080937A0080917A000B
:100EB000826080937A0080917A00816080937A00CA
:100EC00080917A00806880937A001092C10081E05E
:100ED00080930C021092F90110920E0210920D02F2
:100EE0001092070210920602109203021092020260
:100EF0001092FF011092FE011092FB011092FA0174
:100F0000109213021092120210920F0264E170E02C
:100F100080E090E00E94390262E083E00E94660473
:100F20008CE091E09093030180930201809169002D
:100F3000837F886080936900E99AE0912402F091B0
:100F4000250282E08083E0912002F091210210824C
:100F5000E0912202F09123028FEC808310922C0208
:100F6000E0912802F091290286E08083E091260238
:100F7000F0912702808180618083E0912602F091C8
:100F80002702808188608083E0912602F091270209
:100F9000808180688083E0912602F0912702808121
:100FA0008F7D80839E012A5E3F4F1901AE01425E14
:100FB0005F4F2C965FAF4EAF2C9757E0520F619664
:100FC0005FAF61970E94730260966CAF7DAF8EAF8A
:100FD0009FAF6097609113028BE090E00E949F06A4
:100FE000609112028CE090E00E949F0680911202B4
:100FF000882369F080911002909111021816190649
:1010000034F40197909311028093100202C0109261
:10101000120210910F02612F8AE090E00E949F0659
:1010200080910D0290910E02892B09F009C488E08D
:10103000E4E0F1E0DE01119601900D928A95E1F76E
:1010400088E090E09A8789878BE190E09C878B8786
:1010500084E190E09E878D8785E090E0988B8F8774
:101060008AE090E09A8B898B9C8B8B8B80910C0211
:101070008D8B8090080290900902A0900A02B09097
:101080000B0260E085E00E946604E3EBF1E0E4918E
:10109000EEA3EFE9F1E0E491F0E0EE0FFF1FE0577F
:1010A000FE4F8591949198A78FA319AA1BAA1AAAFB
:1010B000FE01F196CE0189961292E817F907E1F741
:1010C000CE0186969EAF8DAF21961FAE21972296B8
:1010D0001FAE229726961CAE1DAE1EAE1FAE2697E3
:1010E0008CE08FAF0E9473026B017C018DAD9EADD1
:1010F0000E945E0381110EC00E947302DC01CB01CD
:101100008C199D09AE09BF09893E9340A105B1051F
:1011100068F3DCC0EDADFEAD138615861486DF01E5
:101120001B9633961E92AE17BF07E1F7D12C612CA8
:1011300055245394EDACFEACF7018585811160C058
:10114000C7010E945E03811105C0F7011386158651
:101150001486B4C040E060EFC7010E94EF0201E0D6
:10116000C12C712C11E0C7010E948002682FC701B9
:1011700062966FAF62970E94800262966FAD62972F
:10118000613019F48130B9F433C02C2D30E068138C
:101190001BC0F7018385181730F4E20FF31F83811A
:1011A000802349F402C0181731F060E0193058F478
:1011B000F701148708C0F701EC0DF11D8381802B26
:1011C000838361E009C0712EF701E20FF31F938161
:1011D000802F809589238383C7010E94C0021F5FEF
:1011E000000F11F4C39401E0F7E0FC1508F0BBCF49
:1011F000113430F0F70173867110B8C35586B6C349
:10120000F70113861586148680E0D7011396F10145
:101210009D9191932C962EAD3FAD2C97E217F3073D
:10122000B9F7882309F44AC0D101E0E06196FFAD27
:101230006197FA1739F08D91E827F0E0E057FF4FFA
:10124000E491F4CF8D8DE81341C08E89883209F086
:1012500071CF4EE4B101CE01CD960E949403882354
:10126000A9F140E060E08DAD9EAD0E94EF0240E04C
:1012700060E08DAD9EAD0E94EF026FAD695062954A
:10128000660F607E6F6140E08DAD9EAD0E94EF0203
:1012900044EBB101CE01CD960E9494038DAD9EAD7D
:1012A0000E94A40291E0811101C090E022969FAFBC
:1012B0002297911101C0D39463943CCFD61411F0BE
:1012C000D11004C081E021968FAF219721968FAD78
:1012D0002197811113C044EBBE016F5F7F4FCE0198
:1012E000CD960E9494038DAD9EAD0E94A40291E024
:1012F000811101C090E022969FAF22978DAD9EADE7
:101300000E945E038823C9F0BE016F5F7F4F8DADE1
:101310009EAD0E94310322964FAD229781E048276F
:1013200064E48DAD9EAD0E94EF020E94730226968A
:101330006CAF7DAF8EAF9FAF269740E1F42EECE00F
:10134000F1E0D1018F2D01900D928A95E1F70E9475
:10135000730226960CAD1DAD2EAD3FAD2697DC0178
:10136000CB01801B910BA20BB30B2FADE1E0F0E0A2
:10137000EC0FFD1F34E0239FE00DF11D1124B49705
:1013800001E0458856886788708C84159505A60508
:10139000B70508F400E022961FAD2297112331F023
:1013A0008DAD9EAD0E948002811101C0102F1123CE
:1013B00031F27E014DE3E40EF11C4EEBBE016F5F96
:1013C0007F4FC7010E949403882309F465C06DAC68
:1013D0007EACCE01C4966C01C3010E94A402F6014A
:1013E00081936F01EE15FF05B9F7DE01D496E0E0B9
:1013F00088E08A0F8A1739F09D91E927F0E0E057DD
:10140000FF4FE491F7CF8CADE81346C080E1ECE1EB
:10141000F1E0D10101900D928A95E1F783E02796E2
:101420008FAF279782E028968FAF289781E0299683
:101430008FAF29972A961FAE2A970FAD10E009505B
:1014400011096DA970E0762F66278CA9682BE6E458
:10145000F0E0EC0FFD1FE00FF11F008002C075955A
:1014600067950A94E2F7072E000C880B990B0E94EF
:10147000690E000F111F000F111FE1E0F0E0EC0FEB
:10148000FD1FE00FF11F258936894789508D0E9485
:101490001E0F6B017C0108C093E3C92E93E9D92E7E
:1014A00098E8E92E93ECF92E8CE391E00E946C060B
:1014B00042E0C701B6010E94980587E491E00E94CE
:1014C00045058D89882349F0C0920802D09209020F
:1014D000E0920A02F0920B024FC020E030E040E2BE
:1014E00051E4609108027091090280910A02909182
:1014F0000B020E941E0FA70196010E94550D20E0CD
:1015000030E040E351E40E94C60D609308027093FE
:10151000090280930A0290930B0269897A89072E47
:10152000000C880B990B0E94690E2B013C019B015A
:10153000AC01C501B4010E94540D9B01AC01C7016F
:10154000B6010E94C10D87FD18C2A3019201C50119
:10155000B4010E94550D9B01AC01C701B6010E9468
:10156000190F18160CF409C2A7019601C701B6019C
:101570000E94C10D811101C2E0900402F0900502A9
:1015800061E087E00E94660460E086E00E946604F5
:1015900060E087E00E941A0483E090E00197F1F791
:1015A00061E087E00E941A0483E290E00197F1F77E
:1015B00060E087E00E941A04E4EBF1E06491E0EA65
:1015C000F1E0E491F0E0EE0FFF1FE057FE4F859150
:1015D000949100E412E42FE030E0462F0E94D406FC
:1015E000611571058105910549F0DC01CB0101967A
:1015F000A11DB11DBC01CD019F7003C060E070E072
:10160000CB012AE330E040E050E00E94130D8AE471
:1016100091E062962FAF629763963FAF63976496AF
:101620004FAF649765965FAF65970E946C066296B0
:101630002FAD629763963FAD6397C9010E946E0616
:10164000E985FA8562962FAD629763963FAD639701
:101650002E1B3F0B44E6429FC001439F900D112477
:101660006B857C856E1B7F0B0E94900F9B018D8983
:10167000882329F0709305026093040228C04091EA
:1016800004025091050265E0649FC001659F900DC2
:101690001124820F931F66E070E00E94900F7093F8
:1016A0000502609304028D859E85A701481B590B96
:1016B000241735070CF46BC1E80EF91EC901E216B8
:1016C000F3060CF4C7012817390709F060C1E09050
:1016D0000002F090010280E480937C0080917A0007
:1016E000806480937A0080917A0086FDFCCF00911F
:1016F00078008091790010E0182B81E691E00E943B
:101700006C06C8010E946E068D89882329F010930B
:1017100001020093000228C02091000230910102D2
:1017200044E1429FC001439F900D1124800F911FFF
:1017300065E170E00E94900F7093010260930002D7
:101740008B899C899701281B390B021713070CF40E
:1017500028C18E0D9F1D9801801791070CF49C01E4
:101760000217130709F01DC10091FC011091FD0142
:101770008DE691E00E946C0680E090E00E946E068B
:101780008D89882329F01092FD011092FC0127C059
:101790002091FC013091FD0145E0429FC001439F33
:1017A000900D112466E070E00E94900F7093FD018F
:1017B0006093FC018B899C899801281B390B1216B8
:1017C000130624F0800F911F97FF09C08091FA0142
:1017D0009091FB0101969093FB018093FA01809117
:1017E000060290910702069734F082E090E0909311
:1017F0000E0280930D0280910202909103020697DF
:1018000034F083E090E090930E0280930D0280917B
:10181000FE019091FF01069734F084E090E09093F0
:101820000E0280930D028091FA019091FB010697C0
:1018300094F085E090E090930E0280930D020BC02F
:1018400081E0612F682760930F0264E670E080E01A
:1018500090E00E9439028091F9018823A1F0833041
:1018600061F0843081F481E0809312028AE090E09C
:10187000909311028093100206C09091130281E0B0
:1018800089278093130210920C020E9473026B014D
:101890007C0160962CAD3DAD4EAD5FAD6097C21A38
:1018A000D30AE40AF50A87E791E00E946C064AE051
:1018B000C701B6010E94570587E491E00E944505E3
:1018C00087E891E00E946C0660910802709109021D
:1018D00080910A0290910B0242E00E9498058EE8E6
:1018E00091E00E946C0680910402909105020E9492
:1018F000A60686E991E00E946C0680910002909114
:1019000001020E94A6068FE991E00E946C06809178
:10191000FC019091FD010E94A6068BEA91E00E94D5
:101920006C0680910D0290910E020E94A60689EB32
:1019300091E00E946C068091130290E00E94A6063E
:101940008FEC91E00E946C068091120290E00E9460
:10195000A60687E491E00E94450562E070E080E021
:1019600090E00E9439020E940E022CCBF701838185
:10197000882309F445CC81E048CC809106029091FF
:10198000070201969093070280930602F5CD80919D
:101990000202909103020196909303028093020247
:1019A00096CE8091FE019091FF0101969093FF01E8
:1019B0008093FE01D9CEE4E1F2E01382128288EE38
:1019C00093E0A0E0B0E084839583A683B78380E3AF
:1019D00091E09183808385EC90E09587848784EC07
:1019E00090E09787868780EC90E0918B808B81ECEC
:1019F00090E0938B828B82EC90E0958B848B86ECCD
:101A000090E0978B868B118E128E138E148E61E070
:101A10008AE00E94660461E08BE00E94660461E057
:101A20008CE00C946604052E97FB1EF400940E9433
:101A30002A0D57FD07D00E94320D07FC03D04EF44B
:101A40000C942A0D50954095309521953F4F4F4F5E
:101A50005F4F089590958095709561957F4F8F4F5A
:101A60009F4F0895A1E21A2EAA1BBB1BFD010DC0BA
:101A7000AA1FBB1FEE1FFF1FA217B307E407F5073E
:101A800020F0A21BB30BE40BF50B661F771F881F1A
:101A9000991F1A9469F760957095809590959B01B0
:101AA000AC01BD01CF0108955058BB27AA270E9461
:101AB0006C0D0C94DF0E0E94D10E38F00E94D80EEF
:101AC00020F039F49F3F19F426F40C94CE0E0EF456
:101AD000E095E7FB0C94C80EE92F0E94F00E58F336
:101AE000BA17620773078407950720F079F4A6F503
:101AF0000C94120F0EF4E0950B2EBA2FA02D0B01B3
:101B0000B90190010C01CA01A0011124FF27591B42
:101B100099F0593F50F4503E68F11A16F040A22F48
:101B2000232F342F4427585FF3CF469537952795B9
:101B3000A795F0405395C9F77EF41F16BA0B620BB8
:101B4000730B840BBAF09150A1F0FF0FBB1F661FFF
:101B5000771F881FC2F70EC0BA0F621F731F841F42
:101B600048F4879577956795B795F7959E3F08F068
:101B7000B0CF9395880F08F09927EE0F979587952A
:101B800008950E94A40E08F481E008950E94DA0DE1
:101B90000C94DF0E0E94D80E58F00E94D10E40F037
:101BA00029F45F3F29F00C94C80E51110C94130FC7
:101BB0000C94CE0E0E94F00E68F39923B1F35523D6
:101BC00091F3951B550BBB27AA2762177307840750
:101BD00038F09F5F5F4F220F331F441FAA1FA9F3E6
:101BE00035D00E2E3AF0E0E832D091505040E695D4
:101BF000001CCAF72BD0FE2F29D0660F771F881F35
:101C0000BB1F261737074807AB07B0E809F0BB0B27
:101C1000802DBF01FF2793585F4F3AF09E3F51053B
:101C200078F00C94C80E0C94130F5F3FE4F3983EC9
:101C3000D4F3869577956795B795F7959F5FC9F724
:101C4000880F911D9695879597F90895E1E0660FA5
:101C5000771F881FBB1F621773078407BA0720F01E
:101C6000621B730B840BBA0BEE1F88F7E095089587
:101C70000E94F80E88F09F5798F0B92F9927B75116
:101C8000B0F0E1F0660F771F881F991F1AF0BA9520
:101C9000C9F714C0B13091F00E94120FB1E008955D
:101CA0000C94120F672F782F8827B85F39F0B93F4F
:101CB000CCF3869577956795B395D9F73EF49095D3
:101CC0008095709561957F4F8F4F9F4F0895E89451
:101CD00009C097FB3EF490958095709561957F4F74
:101CE0008F4F9F4F9923A9F0F92F96E9BB27939522
:101CF000F695879577956795B795F111F8CFFAF432
:101D0000BB0F11F460FF1BC06F5F7F4F8F4F9F4F62
:101D100016C0882311F096E911C0772321F09EE8C0
:101D2000872F762F05C0662371F096E8862F70E026
:101D300060E02AF09A95660F771F881FDAF7880F00
:101D40009695879597F90895990F0008550FAA0B56
:101D5000E0E8FEEF16161706E807F907C0F01216BE
:101D60001306E407F50798F0621B730B840B950BC1
:101D700039F40A2661F0232B242B252B21F4089516
:101D80000A2609F4A140A6958FEF811D811D0895B3
:101D900097F99F6780E870E060E008959FEF80EC1E
:101DA000089500240A9416161706180609060895C1
:101DB00000240A9412161306140605060895092E27
:101DC0000394000C11F4882352F0BB0F40F4BF2B96
:101DD00011F460FF04C06F5F7F4F8F4F9F4F0895D6
:101DE00057FD9058440F551F59F05F3F71F04795CC
:101DF000880F97FB991F61F09F3F79F087950895B1
:101E0000121613061406551FF2CF4695F1DF08C0CF
:101E1000161617061806991FF1CF869571056105EC
:101E200008940895E894BB2766277727CB0197F994
:101E300008950E94A40E08F48FEF08950E94310FB8
:101E40000C94DF0E0E94D10E38F00E94D80E20F0C4
:101E5000952311F00C94C80E0C94CE0E11240C9402
:101E6000130F0E94F00E70F3959FC1F3950F50E091
:101E7000551F629FF001729FBB27F00DB11D639F3C
:101E8000AA27F00DB11DAA1F649F6627B00DA11DE2
:101E9000661F829F2227B00DA11D621F739FB00D88
:101EA000A11D621F839FA00D611D221F749F3327F8
:101EB000A00D611D231F849F600D211D822F762F91
:101EC0006A2F11249F5750409AF0F1F088234AF06E
:101ED000EE0FFF1FBB1F661F771F881F91505040DA
:101EE000A9F79E3F510580F00C94C80E0C94130F77
:101EF0005F3FE4F3983ED4F3869577956795B79561
:101F0000F795E7959F5FC1F7FE2B880F911D96957A
:101F1000879597F908950E94A40E880B990B089550
:101F200097FB072E16F4009407D077FD09D00E9486
:101F3000A40F07FC05D03EF4909581959F4F08951E
:101F4000709561957F4F0895AA1BBB1B51E107C097
:101F5000AA1FBB1FA617B70710F0A61BB70B881F39
:101F6000991F5A95A9F780959095BC01CD010895C8
:101F7000EE0FFF1F0590F491E02D099481E090E0B1
:0A1F8000F8940C94C30FF894FFCFFF
:101F8A007F027F0228E3E222060000915E00000041
:101F9A00BC00000077010000EE0200000000003FD4
:101FAA000000803E0000003E0000803D000000006E
:101FBA009701130160013E015201DE016E6F772025
:101FCA0074656D703A20000D0A006E6F772064699F
:101FDA007374616E636520696E2074616E6B3A205A
:101FEA00006E6F77206C696768743A20006E6F77AD
:101FFA002068756D3A20004D61696E2074696D65BF
:10200A00286D73293A200054656D703A20002054D7
:10201A00616E6B3A2000204C696768743A20002090
:10202A0048756D69646974793A2000206572726F27
:10203A007220636F64653A2000206C6967687420B7
:10204A0072656C6179207374617475733A2000202B
:10205A0070756D702072656C617920737461747526
:10206A00733A20006E616E00696E66006F766600D4
:107800000C94343C0C94513C0C94513C0C94513CE1
:107810000C94513C0C94513C0C94513C0C94513CB4
:107820000C94513C0C94513C0C94513C0C94513CA4
:107830000C94513C0C94513C0C94513C0C94513C94
:107840000C94513C0C94513C0C94513C0C94513C84
:107850000C94513C0C94513C0C94513C0C94513C74
:107860000C94513C0C94513C11241FBECFEFD8E036
:10787000DEBFCDBF11E0A0E0B1E0ECE9FFE702C060
:1078800005900D92A230B107D9F712E0A2E0B1E065
:1078900001C01D92AD30B107E1F70E942D3D0C945F
:1078A000CC3F0C94003C982F959595959595959582
:1078B000905D8F708A307CF0282F295A8091C0000B
:1078C00085FFFCCF9093C6008091C00085FFFCCF60
:1078D0002093C6000895282F205DF0CF982F809127
:1078E000C00085FFFCCF9093C6000895EF92FF92F1
:1078F0000F931F93EE24FF2487018091C00087FD22
:1079000017C00894E11CF11C011D111D81E4E8164B
:1079100082E4F8068FE0080780E0180770F3E09132
:107920000401F091050109958091C00087FFE9CF1E
:107930008091C6001F910F91FF90EF9008950E94D3
:10794000763C982F8091C00085FFFCCF9093C600B5
:1079500091362CF490330CF09053892F089597555D
:10796000892F08951F930E949F3C182F0E949F3CCF
:107970001295107F810F1F9108951F93182F882350
:1079800021F00E94763C1150E1F71F9108951F935A
:10799000182F0E94763C803249F0809103018F5F5E
:1079A000809303018530C1F01F9108958091C0003C
:1079B00085FFFCCF84E18093C6008091C00085FFE5
:1079C000FCCF1093C6008091C00085FFFCCF80E102
:1079D0008093C6001F910895E0910401F091050184
:1079E00009951F9108950E94763C803241F0809164
:1079F00003018F5F80930301853081F008958091AA
:107A0000C00085FFFCCF84E18093C6008091C00058
:107A100085FFFCCF80E18093C6000895E0910401CA
:107A2000F09105010995089540E951E08823A1F0FE
:107A30002D9A28EE33E0FA013197F1F721503040CA
:107A4000D1F72D9828EE33E0FA013197F1F7215064
:107A50003040D1F7815061F708953F924F925F9285
:107A60006F927F928F929F92AF92BF92CF92DF924E
:107A7000EF92FF920F931F93CF93DF93000080E16B
:107A80008093C4001092C50088E18093C10086E015
:107A90008093C2005098589A259A81E00E94143D24
:107AA00024E1F22E9EE1E92E85E9D82E0FE0C02ECA
:107AB00010E1B12EAA24A394B1E49B2EA6E58A2E50
:107AC000F2E57F2EE0E26E2E79E4572E63E5462E36
:107AD00050E5352E0E94763C8033B1F18133B9F107
:107AE000803409F46FC0813409F476C0823409F41B
:107AF00085C0853409F488C0803531F1823521F1A3
:107B0000813511F1853509F485C0863509F48DC0BC
:107B1000843609F496C0843709F403C1853709F423
:107B200072C1863709F466C0809103018F5F80932C
:107B30000301853079F6E0910401F0910501099582
:107B40000E94763C803351F60E94F33CC3CF0E94E2
:107B5000763C803249F78091C00085FFFCCFF092DF
:107B6000C6008091C00085FFFCCF9092C600809136
:107B7000C00085FFFCCF8092C6008091C00085FFC9
:107B8000FCCF7092C6008091C00085FFFCCF609250
:107B9000C6008091C00085FFFCCF5092C600809146
:107BA000C00085FFFCCF4092C6008091C00085FFD9
:107BB000FCCF3092C6008091C00085FFFCCFB09210
:107BC000C60088CF0E94763C863808F4BDCF0E945C
:107BD000763C0E94F33C7ECF0E94763C803809F4CC
:107BE0009CC0813809F40BC1823809F43CC1883942
:107BF00009F48FC080E00E94C73C6CCF84E10E94F2
:107C0000BD3C0E94F33C66CF85E00E94BD3C0E94D3
:107C1000F33C60CF0E94763C809306010E94763C44
:107C2000809307010E94F33C55CF0E94763C80333D
:107C300009F41DC183E00E94BD3C80E00E94C73C66
:107C400049CF0E94763C809309020E94763C809343
:107C5000080280910C028E7F80930C020E94763C79
:107C6000853409F415C18091080290910902892B8D
:107C700089F000E010E00E94763CF801E85FFE4FDA
:107C800080830F5F1F4F80910802909109020817AF
:107C9000190788F30E94763C803209F045CF809125
:107CA0000C0280FF01C16091060170910701660F0F
:107CB000771F7093070160930601A0910802B091AD
:107CC00009021097C9F0E8E0F1E09B01AD014E0F09
:107CD0005F1FF999FECF32BD21BD819180BDFA9A17
:107CE000F99A2F5F3F4FE417F50799F76A0F7B1F4B
:107CF00070930701609306018091C00085FFFCCF5F
:107D0000F092C6008091C00085FFFCCFB092C60003
:107D1000E1CE83E00E94C73CDDCE82E00E94C73CFA
:107D2000D9CE0E94763C809309020E94763C8093D3
:107D300008028091060190910701880F991F909386
:107D40000701809306010E94763C853409F4A6C0A1
:107D500080910C028E7F80930C020E94763C8032D0
:107D600009F0B8CE8091C00085FFFCCFF092C6002C
:107D7000609108027091090261157105B9F140E046
:107D800050E080910C02A82FA170B82FB27011C0E2
:107D9000BB2309F45CC0E0910601F0910701319624
:107DA000F0930701E09306014F5F5F4F46175707B7
:107DB000E8F4AA2369F3F999FECF209106013091E6
:107DC000070132BD21BDF89A90B58091C00085FFB2
:107DD000FCCF9093C6002F5F3F4F30930701209355
:107DE00006014F5F5F4F4617570718F38091C00099
:107DF00085FDE5CE8091C00085FFF8CFE0CE81E023
:107E00000E94C73C67CE0E94763C803209F08CCE3F
:107E10008091C00085FFFCCFF092C6008091C00029
:107E200085FFFCCFE092C6008091C00085FFFCCFAB
:107E3000D092C6008091C00085FFFCCFC092C600E2
:107E40008091C00085FFFCCFB092C60043CEE09188
:107E50000601F091070194918091C00085FFFCCF4D
:107E60009093C6009CCF80E10E94C73C33CE0E9415
:107E7000763C0E94763C182F0E94763C112309F430
:107E800083C0113009F484C08FE00E94C73C22CE29
:107E900080910C02816080930C02E5CE80910C02EF
:107EA000816080930C0259CF809107018823880F4D
:107EB000880B8A2180930B02809106019091070123
:107EC000880F991F90930701809306018091080203
:107ED00080FF09C080910802909109020196909359
:107EE000090280930802F894F999FECF1127E091D6
:107EF0000601F0910701C8E0D1E08091080290915D
:107F00000902103091F40091570001700130D9F34B
:107F100003E000935700E89500915700017001308D
:107F2000D9F301E100935700E89509901990009169
:107F3000570001700130D9F301E000935700E89534
:107F40001395103498F011270091570001700130FB
:107F5000D9F305E000935700E895009157000170B0
:107F60000130D9F301E100935700E895329602976A
:107F700009F0C7CF103011F00296E5CF112480919F
:107F8000C00085FFB9CEBCCE8EE10E94C73CA2CD19
:0C7F900085E90E94C73C9ECDF894FFCF0D
:027F9C00800063
:040000030000780081
:00000001FF
